:020000041000EA
:1000000000B5324B212058609868022188439860DF
:10001000D860186158612E4B002199600221596106
:100020000121F02299502B49196001219960352056
:1000300000F044F80222904214D00621196600F024
:1000400034F8196E01211966002018661A6600F04E
:100050002CF8196E196E196E052000F02FF8012189
:100060000842F9D1002199601B49196000215960AB
:100070001A491B48016001219960EB211966A021F2
:10008000196600F012F800219960164914480160C1
:100090000121996001BC002800D000471248134993
:1000A000086003C880F30888084703B5996A0420EC
:1000B0000142FBD001200142F8D103BD02B5186610
:1000C0001866FFF7F2FF186E186E02BD00000240BE
:1000D000000000180000070000035F00212200005C
:1000E000F4000018222000A00001001008ED00E03C
:1000F00000000000000000000000000074B24E7A12
:1001000000200420F7010010C3010010C5010010F9
:10011000C1010010C1010010C1010010C101001097
:10012000C1010010C1010010C1010010C701001081
:10013000C1010010C1010010C9010010CB01001065
:10014000CD010010CD010010CD010010CD01001037
:10015000CD010010CD010010CD010010CD01001027
:10016000CD010010CD010010CD010010CD01001017
:10017000CD010010CD010010CD010010CD01001007
:10018000CD010010CD010010CD010010CD010010F7
:10019000CD010010CD010010CD010010CD010010E7
:1001A000CD010010CD010010CD010010CD010010D7
:1001B000CD010010CD010010CD010010CD010010C7
:1001C00000BE00BE00BE00BE00BE00BEEFF3058054
:1001D000103800BEF2EB8871984F0110B84F011033
:1001E0003802001090A31AE71E481F49086006C88D
:1001F00081F3088810471D480068002801D019487D
:10020000F3E70DA40ECC002902D000F012F8F9E7B4
:100210001749184A002000E001C19142FCD116495B
:100220008847164988471649884700BEFDE701C937
:1002300001C29A42FBD37047B84F0110C0000020A2
:10024000482E0020407D0110000004200000042002
:10025000407D011000100420001004200000000068
:10026000704700000000000008ED00E0000000D032
:10027000482E00201446002065D70010E519001014
:100280005DD70010F8B5C0460448054B10B5834251
:1002900003D0044B002B00D0984710BD482E0020FF
:1002A000482E00200000000006480749091A8B105C
:1002B000C90FC91810B5491003D0044B002B00D04A
:1002C000984710BD482E0020482E00200000000056
:1002D00010B5074C2378002B09D1FFF7D5FF054B4C
:1002E000002B02D0044800E000BF0123237010BDA2
:1002F000D03100200000000050220110054B10B545
:10030000002B03D00449054800E000BFFFF7CCFFF5
:1003100010BDC04600000000D43100205022011062
:1003200010B50A6803681000984710BD012A03D071
:10033000022A03D0002070470160FBE70B680360CE
:10034000F8E7C04610B504000800110000681A68FC
:1003500009682368984710BD012A03D0022A03D0F8
:10036000002070470160FBE70B680360F8E7C046B8
:1003700010B5831E1B88C01A01F024FC10BDC046B6
:10038000030010B510008A009900034BC9180BF048
:10039000B9FE002010BDC04690290110F0B5DE4620
:1003A00057464E464546E0B51B68066887B0009341
:1003B000B3680F009946F368494638681C6A15000F
:1003C0000AF09CFD60434946824628680AF096FD83
:1003D000444323000122534400279346019353458D
:1003E00035D94B46002B32D0009BBD009C460137CF
:1003F000B94600245746654404E0B3680134043527
:10040000A3421BD9736830681B5DA046DB190593B6
:100410005B4604938368C8440395002B19D0C368D6
:1004200004AA9A4605A903ABD0470028E5D007B037
:10043000F0BCBB46B246A946A046F0BDBA46F2683B
:10044000126A9244019A524501D94746CAE70020F0
:10045000EDE710F039F8C046F0B5DE4657464E4697
:100460004546E0B593688DB08246079150696A4968
:10047000059311F04FFC4342584101224042904302
:10048000C31C0693534600221B69039202930492F5
:10049000002B00D182E08022029BD2009B46934237
:1004A00000D993465846059B01215843800001F02E
:1004B00085FB8146002800D1AAE0039B0B9009939D
:1004C0005B460A9353469B68002B00D1A2E050463E
:1004D0000BABC4680AAA09A9A047029B002B4BD00A
:1004E000079B1D68069B032B60D0049BFF279B0086
:1004F000EB1801930023002598464B4658590BF002
:100500002FFD0400000A38400BF0D1FC43490BF0EA
:1005100068FC43490BF079FC061C200C38400BF0BA
:10052000C6FC3E490BF05DFC3E490BF06EFC011C25
:10053000301C0BF053FC061C200038400BF0B7FCBD
:1005400036490BF04EFC38490BF05FFC011C301CA7
:100550000BF044FC019B585101239C46E0440435B8
:10056000C345CAD8049A029900230132002901D058
:100570005B46013B9B1804935A46029B48469B1AD4
:10058000029301F01FFB8022D20094465246039B47
:100590001269634403939A4200D97CE700200DB0AE
:1005A000F0BCBB46B246A946A046F0BD0026FF27D8
:1005B000049B9B00ED184A46B300D0580BF0D0FCCA
:1005C0000400000C38400BF072FC14490BF009FCDD
:1005D0002860200A38400BF06AFC10490BF001FC3F
:1005E0006860200038400BF062FC0C490BF0F9FB0E
:1005F0000136A8600C35B345DDD8049A0299002372
:1006000003320029B6D05B465B005B44033BB1E795
:100610000648C4E70FF058FF6822011000007F432E
:10062000A245163F8716993ED578E93D16FCFFFF97
:1006300010B5041E10D000290ED001310818012178
:1006400001F0BCFA031E07D0621C12186042104071
:10065000821EC31A138000E0002010BD012A03D0BF
:10066000022A03D0002070470160FBE70B6803609B
:10067000F8E7C046F0B5C64600B50E009846856955
:100680000400170001F06EFA6B6830607160174863
:100690009847002822D1390000202B69984700286C
:1006A00019D14146A07A6B699847002813D10923D4
:1006B000E356012B03D0002080BCB846F0BD207B60
:1006C00007996B699847002805D1E07A6B6906990C
:1006D00098470028EFD003204042EDE7010004488E
:1006E00001F044FA06204042E6E7C0463106001019
:1006F0007422011070B58B680C004968D5684B43B3
:10070000026986B0934200D9130000220293236845
:10071000019204938368002B29D001A9C66804AB19
:1007200002AAB047FE21281C89050BF09DFB00287A
:1007300019D18021636849028B4216D2A2688A428D
:1007400013D26946684692B29BB24A810B812168F6
:10075000428203820391059104AA291C02A801F098
:1007600035FA06B070BD0020FBE70248F9E70FF04C
:10077000ABFEC0460CFCFFFFF0B557464546DE46D3
:100780004E46E0B583B082460D000193002B00D1A8
:100790008FE0002300269946009353461C68297871
:1007A0006368A2685A43009B9C4694446346009346
:1007B00003290FD0092955D0012930D03E4801F036
:1007C000D5F90D20404203B0F0BCBB46B246A94665
:1007D000A046F0BD002A31D0002709E0FF205B468B
:1007E00042469854A368626801375343BB4225D9F7
:1007F0002268BB009858E9680BF0F3FA0BF0F2FBA3
:100800006B68B0469B460BF079FB2B6901369C4622
:100810006044FF28E2DCC343DB171840DFE7002A0F
:100820000CD06B68B1009C460023246890006144A2
:10083000E758CF5004339842FAD1B61801239C46AA
:10084000019BE1444B45A8D1A969009A00208B087F
:100850009A42B8D08A42B6D0184801F087F91820D9
:100860004042B0E7002AE9D0002709E07F205B463C
:1008700042469854A368626801375343BB42DDD9AE
:100880002268BB009858E9680BF0ABFA0BF0AAFBA2
:100890006B68B0469B460BF031FB2B6901369C46DA
:1008A00060447F28E2DC03008033E0DA80204042AD
:1008B000DDE700230093C7E7382301105C23011014
:1008C000F0B50400C64688684A680B00217800B578
:1008D000504303290BD009292BD001291FD02B48C5
:1008E00001F044F90E20404280BCB846F0BDA76933
:1008F000874237D1002F10D02269656890461E6864
:100900007F19434628780135C01A0BF0D5FAE16803
:100910000BF07BFA01C6AF42F3D10020E4E7A269F5
:100920009108814226D1186861680BF0EBFB00202A
:10093000DAE7A769874215D1002FEED022696568F2
:1009400090461E687F190020434628560135C01A7C
:100950000BF0B2FAE1680BF058FA01C6BD42F2D1D1
:100960000020C1E702003900094801F0FFF8182013
:100970004042B9E70321D3171940891889100200B2
:10098000034801F0F3F818204042ADE7F0230110CE
:10099000AC230110F0B557464546DE464E46E0B55D
:1009A00085B010AB1D788B7804001700032B32D074
:1009B000052B28D050230F9AD35C002B23D13B78F2
:1009C000092B32D07223C35A9846002B1BD07B6868
:1009D0009A46436F002D00D007E11100524612687D
:1009E0001868CA6042468860012A0CD05246526894
:1009F00058684A6142460861022A04D052469B6800
:100A000092688B61CA61002005B0F0BCBB46B2465B
:100A1000A946A046F0BD09224B7A8A560C2B00D974
:100A2000DCE081489300C3589F4638690BF044FAD4
:100A30007223E35A061C9946002BE4D0FA687B68BF
:100A40009246626F02939046002D00D095E0002000
:100A500018561C000BF030FA311C0BF0BCF9514653
:100A60000BF0D3F942460F9B1268D8609A604B4650
:100A7000012BC8D0012020560BF01EFA311C0BF0C0
:100A8000AAF951460BF0C1F942460F9B52685861D2
:100A90001A614B46022BB6D0022020560BF00CFAFE
:100AA000311C0BF098F951460BF0AFF943460F9A01
:100AB0009B68D0619361A6E715204042A4E739788E
:100AC0000929F9D002230A009A43012AF4D0574891
:100AD00001F04CF80A20404296E739780929EBD01A
:100AE00002230A009A43012AE6D0514801F03EF859
:100AF0000A20404288E739780929DDD002230A001C
:100B00009A43012AD8D04B4801F030F80A204042DD
:100B10007AE7494801F02AF80A20404274E7397818
:100B20000929C9D002230A009A43012AC4D04348A4
:100B300001F01CF80A20404266E70B7D002BBBD079
:100B40003F4801F013F80A2040425DE70B7D002B7F
:100B5000B2D03C4801F00AF80A20404254E7397804
:100B60000929A9D002230A009A43012AA4D03648B1
:100B700000F0FCFF0A20404246E7344B00279B462A
:100B8000334B160001935346A14682460F9D0393B3
:100B90000835029BD8570BF08FF951460BF01BF923
:100BA00003990BF032F9BB00F158041C58469846E3
:100BB00000F0DCFF201C00F0F1FF019800F0D6FFF0
:100BC00072224B469B5A4A46566F4246B2580137EC
:100BD0002A606C600835BB42DBD814E71D48110061
:100BE00000F0C4FF0A2040420EE7150000268146AF
:100BF000164A08359346164A01925246B700D45910
:100C0000D959584600F0B2FF201C00F0C7FF0198E8
:100C100000F0ACFF4B465B6F0136DA596C602A601E
:100C20000835B045E9D8EEE60C2601100025011084
:100C3000602401109C250110182401103425011096
:100C400098240110CC2401106825011004260110FD
:100C50006C270110D0250110F0B5DE4657464E46F0
:100C60004546E0B5D1B01F005DAB5C9D1B78059299
:100C70009846AB6904009B46049100F073FF4A4B11
:100C8000089009910B939A46484B28000D93484BC6
:100C900010AA0E9300230F9330AB019340AB009347
:100CA000994608A920ABFFF7E5FC061E1ED00F9B56
:100CB000002B0AD007930D9B0493002B00D171E009
:100CC0000E9B07A90BA80493984700230F930D9B35
:100CD000002B03D00BA9032208009847300051B025
:100CE000F0BCBB46B246A946A046F0BD3C23542208
:100CF000E35CA25C10AE9B18310000933A005A9B53
:100D00000498FFF739FD061ED1D1089E099FAB69F3
:100D10009B689847002842D100F024FFFA22801BEC
:100D2000B9415B9B92001864596400230AF00CF9E6
:100D30005B9B010018634346002B2CD14346029372
:100D40005B9B2900019330AB009320004B4620AA07
:100D5000FFF720FE061E09D050235B9AD35C002BC0
:100D60000AD15B465046DB689847A0E700F0F2FEE8
:100D7000831CF1D10600EFE73C23E25C059B20A831
:100D80009C46049B6244D200D158FFF799FD00288D
:100D9000E7D006008BE7074800F0E8FECEE7032621
:100DA0007642D9E70FF090FB710300102D0300107D
:100DB0002103001040260110F0B5DE4657464E468E
:100DC00045461C00E0B5E5B013936EAB0B91197866
:100DD000A3690F90129210001491582200211593CC
:100DE0000BF08AF9C14B20001F93C14B24AA219319
:100DF000C04B1CA922930023239344AB019354AB13
:100E0000009334ABFFF736FC041E00D04EE14022C5
:100E100014AB9B181B78092B02D0032B00D0FEE2E9
:100E200000F0A0FE00220F9B10909B691191179378
:100E3000259B16920693002B00D1E1E20F9D289886
:100E40002B6C279FDC680BF037F8AB6D81461B6974
:100E500060690593A368A8490E9310F05BFF4342B5
:100E60005841012240429043C31C09930B9B1B69CC
:100E70000A93002B00D1C7E00023B8461F000C9353
:100E800080220A9BD2000793934200D907920E98C2
:100E9000079C01216043800000F090FE089000282C
:100EA00000D163E20B9B0C9A9B681A9219941890DC
:100EB0000D93002B00D1B5E20B9819AAC3681AA9AB
:100EC0000D930D9C18ABA0470A9B002B00D188E026
:100ED00000253BE00AF0C8FF002800D114E1C3213F
:100EE000484609060AF0C0FF002800D10CE1059B26
:100EF000002B00D052E1FF20804A230C03405343D3
:100F0000210A7F4A01404A4320409B180201121ADD
:100F1000140124186001001B181800140AF0CCFFFB
:100F20008621C9050AF057FF0AF0E8FF7F2800DD97
:100F30007F2002007B1C803201DA80204042069A2A
:100F4000D0551F00079B0135AB424AD9089AAB0028
:100F5000D0580BF005F8099B04006A494046032B62
:100F6000B8D10AF081FF002800D142E1C3214846F0
:100F700009060AF079FF002800D13AE1059B200C10
:100F8000002B00D087E1FF3318409A460AF094FF07
:100F90008621C9050AF01FFF0AF0B0FF5146069BE3
:100FA000BE1CD855200A08409B460AF085FF8621C2
:100FB000C9050AF010FFBB440AF0A0FF594648706B
:100FC000504620400AF078FF8621C9050AF003FF49
:100FD0000AF094FF069B01359855079B0337AB42F7
:100FE000B4D80A9B079A08989B1A0A9300F0EAFD66
:100FF0008022D20094460B9A0C9B126963440C9396
:1010000007929A4200D93BE700F0A4FD0400831C3C
:1010100045D000F0A7FD109B119CFA22C01AA141F7
:10102000129C0023A063E163920009F08DFF149BE2
:101030000100E062002B00D0A3E100F093FD04006A
:101040000D00139B1C941D959B699B689847002875
:1010500000D0DDE100F086FDFA22001BA941129CC0
:10106000002320646164920009F06EFF2063149BEA
:1010700013990293129B0F98019344AB009334AAE7
:1010800054ABFFF787FC041E05D100F063FD05009B
:10109000831C00D1C8E1159B1448DB689847069B68
:1010A000002B03D0169B002B00D066E1239B002B66
:1010B0000AD01B93219B0593002B00D1B2E1229B08
:1010C0001BA91FA80593984700232393219B002B5E
:1010D00003D01FA9032208009847200065B0F0BC88
:1010E000BB46B246A946A046F0BDC04671030010FB
:1010F0002D03001021030010682201108B4C00000A
:10110000459600008180803BFF239B46200C1840C1
:101110000AF0CDFE5B468246200A18400AF0C7FE60
:10112000061C584620400AF0C2FE059B041C002BFA
:1011300046D15046BF490AF054FEBE498246301C93
:101140000AF04FFEBB49061C201C0AF04AFE041C94
:101150005046B9490AF059FEB8498246301C0AF097
:1011600054FE011C50460AF039FEB549061C201CED
:101170000AF04BFE011C301C0AF030FE41460AF01A
:1011800030FE0AF02FFF011C48460AF027FE0AF045
:10119000B5FE069B7C1CD8552700D3E6FF239B4653
:1011A000200C18400AF083FE5B468246200A184055
:1011B0000AF07DFE061C584620400AF078FE041C0A
:1011C000059B022B00D18DE0042BC1D18621504616
:1011D000C9050AF000FE86218246C905301C0AF0C6
:1011E000FAFD8621061CC905201C0AF0F4FD041C2A
:1011F000AEE7FF26200C30400AF059FE8346200A55
:1012000030400AF054FE8246300020400AF04FFE83
:10121000059B061C002B4DD1584686490AF0E1FD7E
:101220008449834650460AF0DCFD82498246301CE0
:101230000AF0D7FD061C414658460AF0D2FD0AF0D6
:10124000D1FE011C48460AF0C9FD0AF057FE069B74
:101250004146D85550460AF0C4FD0AF0C3FE069A2E
:10126000011C924648460AF0B9FDBA440AF046FE0F
:10127000534641465870301C0AF0B3FD0AF0B2FEE6
:10128000011C48460AF0AAFD0AF038FE069ABC1C6A
:101290001055033756E6FF2630400AF008FE834615
:1012A000200A30400AF003FE8246300020400AF057
:1012B000FEFD061C059B022B36D0042BBBD18621DC
:1012C0005846C9050AF087FD86218346C905504660
:1012D0000AF081FD86218246C905301C0AF07BFD9B
:1012E000061CA8E7504653490AF07BFD55490AF011
:1012F00072FD55490AF075FD4E498246301C0AF0D0
:1013000070FD52490AF067FD51490AF06AFD4949EA
:10131000061C201C0AF065FD4E490AF05CFD4E4992
:101320000AF05FFD041C13E7584642490AF059FDD4
:1013300044490AF050FD44490AF053FD3D498346B3
:1013400050460AF04EFD41490AF045FD40490AF079
:1013500048FD38498246301C0AF043FD3D490AF0F9
:101360003AFD3D490AF03DFD061C64E705243B4972
:101370003B4800F0FBFB644291E6069800F022FC3B
:1013800094E6384800F0F2FB179B002B17D01E00A4
:10139000069B354D9C461C0066440020289B205629
:1013A0000593C01A0AF088FD27990AF02EFD00F077
:1013B000F5FB0134280000F0D9FBB442EDD12B48F5
:1013C00000F0D4FB00F0CEFB04000D00139B1C9436
:1013D0001D959B699B689847002819D100F0C2FBB6
:1013E000FA22001BA941129C002320646164920030
:1013F00009F0AAFD010020631D4800F0B7FB36E6A6
:101400000121179800F0DAFB01230690169315E5E9
:101410000324159B1748DB68984764423FE609247C
:10142000644243E60FF050F8159B1248DB6898477A
:101430002C0034E600007F438716993EA245163FF4
:10144000D578E93DEC51F83EFA7E6A3ED578E93E22
:101450004260653E3BDFCF3E6666663E16FCFFFFA0
:101460007826011060260110742601106C270110E7
:101470004026011071030010F0B557464E46454610
:10148000DE46E0B5A7B082460E0015001F000B91A6
:101490000D921493002800D192E2C468002C00D170
:1014A0008EE2002A00D18BE2002900D188E2A36DF0
:1014B0009968D8686423E35C0E2B00D8EBE05822CF
:1014C00000210D980AF018FE534654213C22DB6897
:1014D0009A5C5B5CD518EC00200015950AF01CFEA8
:1014E0002200002112900AF007FEA81C80000AF0DA
:1014F00013FE0423036003000833139045600F9329
:10150000002D05D01800159B00219A000AF0F4FD6B
:1015100000F028FB53463C22DB68109011919A5C46
:10152000002A00D163E10F9A9146129A9346002255
:101530005F461600059234E0D14B1B78002B00D19A
:10154000DDE053465C68B3009C4664442068002894
:1015500000D1E7E00D9A036801925246D2685946DD
:10156000926B00925C683A68099BA047002800D003
:10157000C5E100F0EFFA831C00D1C7E1239B002BEB
:1015800003D021A903220800984704225346944619
:10159000DB6838329A5C0136E1440837B24200D841
:1015A00025E1720194461B6C0C9263441A685D69D4
:1015B00006925A68102090469A680A92DA68099250
:1015C0001A69DB6908920793B3000E930AF0A0FD35
:1015D000434604000121980000F0F0FA0123237330
:1015E00063604346A3604B461B6820609B464B46A6
:1015F0001C605B46002B0ED01868002803D01B7BB4
:10160000002B00D0C9E058460AF08AFD4B461C6802
:10161000002C00D12DE12368002B00D144E152467B
:10162000069BD2687B60059B3C6043449046926970
:101630000593934200D95CE1089B0B9A1E934346A5
:101640002093002323934346196A93461D921F95C6
:101650008D4214D0106909F051FC1DAB199317ABE2
:101660001900454319AA259521CA21C121AA03CBF6
:1016700003C2844B2393844B249321AB9B46079B4B
:10168000002B00D058E74346210058469B6B099A2F
:101690000A9CA0476AE77D4ADA40D20700D40EE7E9
:1016A0007123E35C002B00D009E7794B994200D00D
:1016B00005E7037D002B00D101E73C23E35C012B10
:1016C00000D0FCE6226C734B92689A4200D0F6E69A
:1016D0005822002128000AF00FFDA36D2000DB68CE
:1016E0002A0031000097FFF767FB041E58D0200046
:1016F00027B0F0BCBB46B246A946A046F0BD66493D
:10170000664800F033FA664800F030FA01235C4A7C
:10171000137053465C68B3009C46644420680028FC
:1017200000D017E753461A680C9B116C8C46634433
:10173000916BD868DB69984753465B682060B200BC
:101740009858002800D005E70B246442239B002B07
:1017500003D021A9032208009847139B5B689D00D2
:1017600005930F9B9C4665441F00AB420ED0043D81
:101770002E68002E08D03068002802D0337B002B62
:1017800032D130000AF0CCFCAF42F0D113980AF00D
:10179000CBFC12980AF0C8FCA9E700F013FA32E774
:1017A0005346DE680025F36D002BA0D080465746D7
:1017B0000D9C04E0F36D0135AB4200D897E03B6926
:1017C000002B01D0AA00D3586A005219D100326E02
:1017D0003800944661444A69C96889462100C8476F
:1017E0000028E7D0040082E700F0ECF9C9E700F038
:1017F000B9F9109B119CFA22C01AA1410D9C00233B
:10180000A063E163920009F09FFB149B0100E0627A
:10181000002B00D0A7E05346D8685423C35C002BAC
:1018200079D0129B00259946149B502654279B463D
:101830000D9C05E05346D8680135C35DAB426AD9BB
:10184000836D6A019C4662449368117E9846D36812
:101850009C4653691279A2555A46039262460091FA
:10186000029249462A000194C0470028E2D00400B1
:1018700073E731000B4800F079F9083C6DE7C0468A
:10188000094600205D0600109D030010A4480000DA
:10189000590C001059040010A4220110AC220110B0
:1018A00004270110A02601103100474800F05EF91E
:1018B000139B5B689C0005930F9B9C4664441E0031
:1018C000A3420ED0043C2568002D08D028680028CB
:1018D00002D02B7B002B1BD128000AF021FCA64252
:1018E000F0D1082413980AF01FFC644235E74446FF
:1018F000FDE60524354800F039F964422DE705245A
:101900000100334800F032F964421FE704001DE78C
:1019100000F058F9E0E700F01DF90400831C00D145
:101920001BE75346DE680025F36D002B46D0574673
:101930000D9C03E0F36D0135AB423FD93B69002BB1
:1019400001D0AA00D3586A005219D100326E380073
:10195000944661444A69C96888462100C047002806
:10196000E8D00400F9E61B4800F000F9159B002BB5
:1019700020D0194A002790469946129D174E2B6891
:10198000002B13D09A680024002A0CD01B68A200F8
:10199000D05800F003F9300000F0E8F82B6801346B
:1019A0009A68A242F2D8404600F0E0F801370835C4
:1019B000B945E4D10A4800F0D9F82CE70024CCE678
:1019C0001624644293E6C046A0260110D8260110D2
:1019D00078260110602601106C2701107426011072
:1019E00070270110F0B5DE4645464E465746E0B535
:1019F000B9B00CF0FBFA192008F04AF8D023802285
:101A00001B0692045A62002158220CA80AF074FBAB
:101A10003C4800F0ABF805AB994622AB98463A4BF0
:101A200007AD9B46D02380221B06596892041142C1
:101A300052D15A613E232B61344B424622934B468E
:101A400003CA03C32B004A4603CA03C3304B290011
:101A50000993304B30480A930CAA0023FFF70CFD82
:101A600000283BD158220CA940460AF04BFB199B99
:101A70002A480193189B44460293179B029A0393AA
:101A80000399019B00F072F8254800F06FF828AB2D
:101A90009A46244E244F584602CE00F067F8E0687C
:101AA0000AF064FA083402000B00380000F05EF817
:101AB000A245F0D1FA20C00000F04EF8AB68002B30
:101AC000B0D00322290028009847D02380221B068B
:101AD000596892041142ACD09A61ABE7010004004E
:101AE000124800F043F8AB68002B03D00322290012
:101AF00028009847200039B0F0BCBB46B246A94642
:101B0000A046F0BDD8270110C8270110810300109E
:101B10005903001045030010A84500208427011038
:101B2000B8270110B81F0020D02701101428011079
:101B300070B50025054C064E25722660042000F085
:101B400039F860600560E660256170BDA845002039
:101B5000B82801100020704710B508F019FE0020C9
:101B600010BDC04610B508F0AFFE10BD0FB4802107
:101B700010B582B004AB084C04CB2000C90001931F
:101B80000BF094FD002802DD20000CF003F802B0F9
:101B900010BC08BC04B018472035002010B50AF06E
:101BA000E5F902000B0002480BF0F4FF10BDC0463F
:101BB000882A011010B50AF06DFA10BD10B50AF0B0
:101BC0007BFA10BD10B50AF08BFA10BDF8B54E4681
:101BD000DE4657464546E0B543680E1C9B465368B3
:101BE00042889A4603885A439308914698461FD0E4
:101BF0005D4654461F002868311C0AF006F9206033
:101C00006868311C0AF001F96060A868311C0AF0AC
:101C1000FCF8A060E868311C0AF0F7F8013FE060CA
:101C200010351034002FE6D143461B019B449A44E3
:101C300003234C464A461C40134219D05B46311CD4
:101C400018680AF0E2F85346651E1860012C0FD0A0
:101C50005B46311C58680AF0D8F853465860012D8D
:101C600006D05B46311C98680AF0CFF8534698605E
:101C70000020F0BCBB46B246A946A046F8BDC0460F
:101C8000020070B5884216D0002812D0002910D06A
:101C900004680B680020A3420CD1002C0BDD042348
:101CA00003E001300433844205D0D558CE58B54204
:101CB000F7D0002070BD0120FCE7C046122803D8F1
:101CC000024B8000C05870470148FCE7402B0110D0
:101CD0008C2A0110F0B500291BDD0023C3561B0719
:101CE0001B171370012914D006000023571C08E0AD
:101CF0005C1006190457033524072417D4548D4269
:101D000007D0002434571D002411FC54023399429B
:101D1000EEDCF0BDF8B515001C0000220023060023
:101D20000F0009F099FB002803D000232B602360EB
:101D3000F8BD22003000390010F012FA0022124BD8
:101D400009F047FB09F08CFC09F00EFC002918DCB7
:101D500013D080231B06984207D023681F3302DA72
:101D60000023002023602860E2E70029F5D18020CD
:101D70002368C00501332360F0E780231B069842E7
:101D8000E7D90FF015FBC0460000E041F0B51700A1
:101D90001E0083B000221F4B04000D0009F064FBFD
:101DA000002827D0002200232000290009F072FB20
:101DB00000281FD001AA2000290010F0D1F900222C
:101DC000154B09F006FB09F04BFC09F0CDFB00298F
:101DD00010DC19D080231B0698420DD0019B1A00FD
:101DE0001F3204DA00233B60336003B0F0BD38607B
:101DF000002BF9DD0FF0DCFA0029EFD18020019BE8
:101E0000C00501330193EAE780231B069842E1D91C
:101E1000F0E7C0460000F03F0000E041F0B5C646E4
:101E20000400802000B582B0009201930A9B000656
:101E30009846089B0D00D84009F042FB009A019B90
:101E400006000F002000290009F0C3FA02000B0071
:101E50003000390009F0BDFA2A4A2B4B04000D006E
:101E600009F018FB061E17D1002220002900274B7D
:101E700009F010FB00282ED00022002320002900AA
:101E800009F0EAFA002809D0099B1E6043461E604B
:101E900002B080BCB846F0BD1A4C1B4D4246200033
:101EA000290010F05DF90022194B09F092FA09F0AF
:101EB000D7FB09F059FB00290DDC1ED080231B063F
:101EC000984210D043461B681A001F3205DB099A5E
:101ED0001060002BDCDA0FF06BFA0023424613602F
:101EE000099A1360D4E70029ECD14346424680208A
:101EF0001B68C00501331360E6E780231B06984288
:101F0000DCD9E8E70000C0FFFFFFDF410000F03F41
:101F10000000E041F8B5CE4601238146474618004F
:101F200098464B46984080B5013816000F0009F0DE
:101F3000C7FA4B46F21A20235B4204000D00D31867
:101F400026D44146994001263000904009F000FB1C
:101F50000B0002002900200009F03BFA20235B421D
:101F600004000D00FB1818D4310099400120B8403E
:101F700009F0EEFA02000B002000290009F00BFA2C
:101F800009F0BEFB09F0B4FAC0BCB946B046F8BDD2
:101F9000202341469B1AD940D5E720233100DB1B83
:101FA000D940E3E7F0B5CE46474680B51C00CB6884
:101FB00005009846D36883B09946002C2BD0404644
:101FC00009F0D4FF060048460F0009F0CFFF0200D9
:101FD0000B003000390009F0FCF90600E0680F0042
:101FE00009F0C4FF02000B003000390009F0C1F90C
:101FF0000A9B0600D8684C0009F0B8FF640802008C
:102000000B003000210009F0C6F91C4A1C4B09F0F6
:1020100031FA002821D04946404609F0F6FE002159
:10202000041C09F037FF002822D0201C09F09EFF75
:102030000A9B0400D8680D0009F098FF0B0002000D
:102040002900200009F0A7F90B9B186059600020B7
:1020500003B0C0BCB946B046F0BD0A4B00939E2306
:102060002C695B002800084A0849A0470120EFE7D7
:10207000074B00934A232C69FF33F3E77B14AE47E9
:10208000E17A943F202C01108C2B0110082C0110B8
:10209000442C0110F0B5D6464F464646C0B5040064
:1020A00010781D0082B003284CD0092822D00728C0
:1020B00010D1584F584ED368984613699946012954
:1020C00021D003295AD002293FD00A9B2E6000203C
:1020D0001F6009E0514B2569009390232000504A6E
:1020E0005049FF33A847012002B0E0BCBA46B146D0
:1020F000A846F0BD8026D3687F27984613697642AC
:1021000099460129DDD14146002009F06AFE09F017
:1021100069FFCF210906804609F0BCFE002828D0BF
:102120009E214046C90509F0ADFE002821D0404659
:1021300009F0E4FE4844B04264DB0A9B28600020BA
:102140001F60D1E7FF270026B5E74146364809F072
:1021500048FE09F047FFCF210906824609F09AFEA2
:10216000002806D09E215046C90509F08BFE0028A4
:102170003DD12E4B256900935823AFE741460020FF
:1021800009F02FFE09F02EFFCF210906824609F043
:1021900081FE0028EDD09E215046C90509F072FE4F
:1021A0000028E6D0504609F0A9FE4844B0422DDB95
:1021B000414628601E4809F014FE09F013FFCF21A4
:1021C0000906051C09F066FE0028D2D09E21281CB5
:1021D000C90509F057FE0028CBD0281C09F08EFE57
:1021E0004844B84210DC0A9B186000207CE7504647
:1021F00009F084FE4844B0420ADB2860FE204146D4
:102200008005D8E7300098E73800ECE73000CFE7EA
:102210003000F2E7FF7F00000080FFFF602C01101C
:102220008C2B0110082C0110000080BF682C0110BD
:102230000000C040F0B557464E464546DE469A4639
:102240003023E0B5CF5C04000D0016008FB0012FE5
:1022500015D02F3B0393B84B02970193B74B0093D4
:10226000D72305692000B64AB649A8470127380098
:102270000FB0F0BCBB46B246A946A046F0BDD35C49
:10228000012B0BD00293AC4B03970193AE4BAC4A9E
:1022900000930569D923AB49A847E8E7536B002BA6
:1022A00000D1E0E01A689046002A00D1C7E0126829
:1022B000012A1DDDFD2009780739014208D0A34B12
:1022C000200000932569E9239D4AA149A847CEE74C
:1022D0003178092900D1BAE0122900D1B7E09D4B2D
:1022E000200000932569EB23954A9949A847BEE74A
:1022F000189BC868DF68209B002B30DD09F036FE94
:1023000006900791381C09F031FE0DAB9B465A46EA
:102310000CABA946A346002744461D00B046160054
:1023200004900591606809F021FE069A079B09F068
:1023300050F8049A059B09F02EF833002A00FFF7A5
:10234000E9FC1E9A0C99BB00D1501F9A0D990137D8
:10235000D150209BBB42E5DC5C464D4646462B787F
:10236000032B05D0092B5FD0072B5DD000277EE71C
:10237000EB689846F36899465346002B2DD04046AB
:1023800009F0F4FD060048460F0009F0EFFD0200D9
:102390000B003000390009F01CF853460600D868DD
:1023A0000F0009F0E3FD02000B003000390008F0D7
:1023B000E0FF189B0700D8684E0009F0D7FD7608AB
:1023C00002000B003800310008F0E5FF624A634B61
:1023D00009F050F8002800D19AE04946404609F03B
:1023E00014FD0021061C09F055FD002800D199E0DC
:1023F000301C09F0BBFD189B0600D8680F0009F0DF
:10240000B5FD02000B003000390008F0C4FF1A9A35
:102410000DABFFF77FFC0D9B1B9A5B4213602B7883
:10242000092B01D0032B9FD1199B200019781D9BEC
:10243000189A00931C9BFFF72DFE070017E7484BE7
:102440003F4A00930569E5234149A8470FE72099D2
:10245000914210D0434B03910193434B029200935E
:102460002569ED23FEE6414B354A00930569E423D7
:102470003749A847FBE6B2689B6894469B006344D3
:102480005B68209A9A4208D00393394B02920193D9
:10249000344B00932569EE23E4E64346E8680433B1
:1024A000049309F063FD189B08900991D86809F01E
:1024B0005DFD002398460DAB9B460CAB002799466B
:1024C000069007910A940B964446D846AB46089D61
:1024D000099E049B0134D85909F048FD2A003300B5
:1024E00008F077FF069A079B08F055FF43464A46D7
:1024F000FFF710FC1E9B0C9ADA511F9B0D9ADA51C4
:10250000209B0437A342E4DC5D460A9C0B9E26E731
:10251000184B200000939E232569094A0C495B0053
:10252000A847A3E6144B200000934A232569044AD8
:102530000749FF33A84799E6AC2C0110C82C0110BD
:102540008C2B0110902C0110E42C0110302D011067
:10255000082C01106C2D01107B14AE47E17A943FDA
:10256000142D0110A82D0110B82D0110002D0110FF
:10257000DC2D0110202C0110442C011010B58968AD
:102580008068FFF77DFB431E9841C0B210BDC04676
:1025900010B53C21436B984710BDC046F0B54E4680
:1025A0004546DE465746E0B55A6BE3B06C9E009256
:1025B0009A6B1B7831006D9D6E9C0192002B00D1AF
:1025C0004CE11CA804F0D2FD3368290022A8059331
:1025D00004F0CCFD2B68210028A8069304F0C6FD6A
:1025E000042123681C9A07934691042A00DD3AE2ED
:1025F0008B1A91420DD001214791012B09D04891AE
:10260000022B06D04991032B03D04A91042B00D012
:102610004B919B0047A9C81892001DA909F072FDB3
:102620000421229A4C91042A00DD1CE28B1A91426B
:102630000AD001214D91012B06D04E91022B03D0DF
:102640004F91032B00D050919B004DA9C8189200C8
:1026500023A909F057FD4A9B01251A004998489C77
:10266000424357926243599561954F9D56922A0075
:1026700050994E9E4A4390465F924D9A479F94468A
:1026800042467243589360915E92674504D000229F
:10269000012F00D14BE15E92B44204D00022012C04
:1026A00000D1DCE15F92A84204D00022012800D1D1
:1026B000D3E16092994204D0012B00D1CAE10023FA
:1026C00061930421289A4091042A00DDCBE18B1A02
:1026D00091420DD001214191012B09D04291022B51
:1026E00006D04391032B03D04491042B00D0459195
:1026F0009B0041A9C818920029A909F003FD419B3C
:102700001A93002B00DCA2E0569B42991793579B2B
:1027100043981093589B449C08935E9B599A189336
:102720005F9B0F911193609B039009930494619BAD
:10273000002900DC8BE0002800DC88E0002C00DCB5
:1027400085E0012B00D0F4E0012A00D0F1E0030085
:102750004B431693049B9B00029300231293139305
:1027600014931593129B0C93139B0D93149B0B9333
:1027700000230E93049B0B9A53439B460C9B9A4653
:102780000D9B994600239846059A4B4694469B001C
:1027900063440A9353469F00069B00249C465B4675
:1027A0009E00079B67449C4666440A9B385919590A
:1027B00009F014FB051C011C009809F073FB0028AC
:1027C00000D0009D0198291C09F056FB002800D07C
:1027D0009BE0029B355104349C42E6D101239C4688
:1027E000089BE0449C46099BE1449C46049BE244D0
:1027F0009C46039BE3449845C6D119008C460B9A2E
:10280000109962448C460B9211990D9A0E9B62446A
:102810008C460D920C9A013362440C920F9A0E93DF
:102820009A42A7D11699149A8C46179962448C46FD
:1028300014921899139A159B62448C461392129A1B
:102840000133624412921A9A15939A428AD163B064
:10285000F0BCBB46B246A946A046F0BD2EA804F087
:1028600085FC3368290034A8994604F07FFC2100D8
:102870003AA82F6804F07AFC2E9A2568002A54DDC5
:1028800001202EAB92009A185968043348439342B2
:10289000FAD1349B002B46DD9B0034AAD1180123CA
:1028A0005468043263438A42FAD13A99002900DC21
:1028B000D7E089003AAA54180121566804327143BE
:1028C000A242FAD1834200D0CDE08B4200D0CAE0D0
:1028D0009A0090460024002BB9DD4B46395918590F
:1028E00009F07CFA061C011C009809F0DBFA0028AC
:1028F00000D0009E0198311C09F0BEFA00280CD1CE
:102900002E5104344445E8D1A1E7019B3351029B89
:102910000434A34200D048E760E7019B2B51043404
:102920004445DAD193E70123BFE70120B1E756928E
:10293000B2E69B000C93002303990F989200414349
:102940000B921B911693159314931993169B129344
:10295000159B0E93149B0D9300231393049B0D9AC8
:1029600053439846129B9A460E9B029300239B4624
:1029700043469B009946029B049A9D00059B9C46FA
:1029800053469C00069B65449C4664449446079BC2
:10299000E04442461F0092004F4491464B440A9344
:1029A00009E040C70B9B9C460C9B65449C460A9BD8
:1029B00064449F4214D02168286809F00FFA061C6D
:1029C000011C009809F06EFA002800D0009E0198C2
:1029D000311C09F051FA0028E3D0019B08C7E1E758
:1029E00001239C46089AE3449446029B6344029365
:1029F000099B9C46039BE2445B45BCD119008C4675
:102A00000D9A109962448C460D9211990E9A139B5F
:102A100062448C460E92129A0133624412920F9ACB
:102A2000139393429AD11B99149A8C461799624436
:102A30008C4614921899159A199B62448C461592EB
:102A4000169A0133624416921A9A1993934200D04F
:102A50007CE7FCE60023599333E658922AE6579226
:102A600021E601212EE70EF0A3FCC046F0B5DE46BC
:102A700057464E464546A222E0B5974CD200A544A3
:102A80006A441668954A31006A441568A322D20048
:102A90006A4414685A6A50A80A929A6A0B925A6950
:102AA00092465A689146DA6A0C929A6993469A68F5
:102AB00007921A6B0D92DA6904921A6A0892DA6820
:102AC0001B690592069304F051FB290056A804F0F7
:102AD0004DFB509A569B170098469A4200DA1F0009
:102AE000C897BB1A97420DD00121C991012B09D07B
:102AF000CA91022B06D0CB91032B03D0CC91042B8F
:102B000000D0CD919B00C9A9C818920051A909F025
:102B1000F9FACE97B84501DD02F03BF84346FB1ABF
:102B200047450DD00122CF92012B09D0D092022B24
:102B300006D0D192032B03D0D292042B00D0D39293
:102B40009B00CFAAD018434657A99A0009F0DAFA99
:102B5000C89ACE9B9A4221D07B1E26D4C8A98C4607
:102B60009B00CEAAD218634452685B689A4201D196
:102B700000F0E1FF237A072B00D1EFE2092B00D10F
:102B8000B8E0022B01D100F01BFD0120544B9D4405
:102B9000F0BCBB46B246A946A046F0BD9200CFA904
:102BA000C9A80EF015FF0028D6D1237A072B01D132
:102BB00001F0A9F9092B01D100F0F6FF022BE4D1B5
:102BC0003100B6A804F0D2FA2900BCA8366804F097
:102BD000CDFA2100C2A82D6804F0C8FAB69B24687B
:102BE000002B01DC01F060FB9B00B6AAD118012389
:102BF0005068043243438A42FAD1BC99002901DC6F
:102C000001F04FFB0120BCAA89005118576804321B
:102C100078438A42FAD1C299002901DC01F03EFBD7
:102C20008900C2AA57189C460121536804325943AF
:102C3000BA42FAD16346834201D001F0AAFF8B4227
:102C400001D001F0A6FF079A57424A46002A03D056
:102C5000574232002E001500002B01DC00F052FE1E
:102C600001229B00F31804930123BA4098461D4BA0
:102C7000013A9B461C4B51108C469A4611E01B4B67
:102C800005980100984200DA1900069B994200DD80
:102C90001900049B043602C404359E4201D100F0A1
:102CA00031FE43462968C817184013000B40994667
:102CB00060440123484500DB0023404639415B4224
:102CC00003405B180020315E1BB25B185B45D6DB0E
:102CD0005345D5DD064BD3E714FBFFFF1405000079
:102CE000EC0400000180FFFFFE7F00000080FFFF7A
:102CF000FF7F000031005CA804F038FA3368290037
:102D000062A8409304F032FA2B68210068A8369339
:102D100004F02CFA042123685C9A3493DA91042A93
:102D200001DD01F036FF8B1A91420DD00121DB91BC
:102D3000012B09D0DC91022B06D0DD91032B03D0AF
:102D4000DE91042B00D0DF919B00DBA9C818920014
:102D50005DA909F0D7F90421629AE091042A01DD06
:102D600001F017FF8B1A91420AD00121E191012B4A
:102D700006D0E291022B03D0E391032B00D0E49123
:102D80009B00E1A9C818920063A909F0BBF90122D0
:102D9000DE9BFFA91C0048310A60DD99FFA84C4367
:102DA0004430FFAD0360DC982C6444434035FFADF4
:102DB000EC63FFACA266E39A3C359446E49DFFAA1F
:102DC0006432156062466A436834FFAC2266603440
:102DD000E19CE29FA0467A43FFACDB9E5C3422601C
:102DE000464507D00022FFAC012E01D101F0BBFE09
:102DF0005C342260874207D00022012801D101F013
:102E0000A3FEFFA860300260614507D000220129BF
:102E100001D101F094FEFFA964310A60AB4207D0F2
:102E2000012B01D101F095FE0023FFAA6832136047
:102E30000421689AD491042A01DD01F0AAFE8B1ABC
:102E400091420DD00121D591012B09D0D691022BB1
:102E500006D0D791032B03D0D891042B00D0D99161
:102E60009B00D5A9C818920069A909F04BF9D59B18
:102E70004D93002B01DC00F045FDFFAB3C331B689C
:102E8000D6994A93FFAB40331B68D7984393FFAB67
:102E900044331B68D89C3793FFAB9D6C4833FFAB22
:102EA0005C331B6842914B93FFAB60331B682E90E1
:102EB0004493FFAB64331B6828943893FFAB9E6E3A
:102EC00068334B465B421F001A9301231A00BA4035
:102ED000013A571014971F002492520052083C9256
:102EE000079A1C955242974018923A00013A229252
:102EF0005710520052083A92089A1E965242934036
:102F0000013B129716925A1020935B005B081092B7
:102F10003993002901DC00F0F5FC002801DC00F009
:102F2000F1FC002C01DC00F0EDFC012E01D001F0E1
:102F300051FC012D01D001F04DFC03004B4349939E
:102F4000002346934793459348935B46DB170893CA
:102F5000049BDB1709935346DB17079353463093C3
:102F60005B463293469A409B944663443F93479B0B
:102F70003E93459B3D9300234193289B3D9A01241A
:102F800053431C933E9B1E933F9B9B4600232A93D7
:102F90001E9A369B94461C9A634494469A46349BE8
:102FA000D94663442693289B5B442C9343E0099BBA
:102FB0003000F11708F0F2FE02000B1E01DB00F0FA
:102FC00041FD01216348494212184B41D91749007C
:102FD00049080E9100210F910E980F9912184B413C
:102FE00011005B00CA0F1A4320981099D317234091
:102FF000104059180123884200DC002316995B42D7
:103000000A4123409A180D9B9C46059B62449A42B4
:1030100000DA1A00069B9A4200DD1A00269B1A70FD
:1030200001229446013326932C9BE144E2444B4514
:1030300001D100F06AFC4B460B9A1B7894465BB2B8
:103040000A9A634493400025984653465D570C9B6B
:103050009C4665449540309A424501D100F029FDD7
:1030600043464046D917079B08F098FE02000B1E06
:1030700001DB00F0FBFC0127364E7F42B6185F41B2
:10308000F91749004B08009300230193009A019B14
:10309000B6185F417A00F60F32431498249984469B
:1030A000D3172340114063440126994200DC0026D7
:1030B0001A9B76421A412640B618329AAA4201D18A
:1030C00000F0DFFC089B2800E91708F067FE02000B
:1030D0000B1E01DB00F0C5FC01211E4849421218FD
:1030E0004B41D917490049080291002103910298E8
:1030F000039912184B41110012985B008446CA0FC5
:103100001A432299D3172340114063440120994266
:1031100000DC0020189B40421A412040821896197A
:10312000049AB24200D042E7099B1000190008F04F
:1031300035FE02000B1E01DA01F047FB8020002162
:10314000C00580252D06AE4200D03DE71099399884
:10315000014A4FE7010000C0FFFFFF7F310080A858
:1031600004F004F83368290086A8379303F0FEFFC3
:103170002B6821008CA8369303F0F8FF0421236804
:10318000809A3493EC91042A01DD01F002FD8B1A40
:1031900091420DD00121ED91012B09D0EE91022B2E
:1031A00006D0EF91032B03D0F091042B00D0F191C6
:1031B0009B00EDA9C818920081A908F0A3FF042183
:1031C000869AF291042A01DD01F0E3FC8B1A914208
:1031D0000AD00121F391012B06D0F491022B03D0E8
:1031E000F591032B00D0F6919B00F3A9C81892002B
:1031F00087A908F087FF0122FFA988310A60EF99AB
:10320000F09B0C00FFA85C4384300360FFADEE9898
:1032100080352C604443FFADEC67FFACA8342260DE
:10322000F59A7C359446F69DFFAAA4321560624655
:103230006A43FFACA0342260F39CF49FA0467A431B
:10324000FFACED9E9C342260464507D00022FFACC7
:10325000012E01D101F0B5FA9C342260B84207D0AA
:103260000022012801D101F0A7FAFFA8A0300260D6
:103270008C4507D00022012901D101F098FAFFA95D
:10328000A4310A609D4207D0012B01D101F085FADB
:103290000023FFAAA832136004218C9AE691042A25
:1032A00001DD01F076FC8B1A91420DD00121E791EE
:1032B000012B09D0E891022B06D0E991032B03D012
:1032C000EA91042B00D0EB919B00E7A9C81892006B
:1032D0008DA908F017FFE79B4E93002B00DC11E34C
:1032E000FFAB7C331B68E89C4B93FFAB80331B68C0
:1032F000E99D4393FFAB84331B68EA9E3893FFAB91
:1033000088331968FFAB9C331B6842944C93FFAB26
:10331000A0331B682E954493FFABA4331B682896FB
:103320003993FFABA8331A684B465B421F001E93CC
:1033300001231800B8400138471018971F00249047
:10334000400040083E900798404287401C9038005B
:10335000013822904710400040083D900898169789
:1033600040428340013B1A90209358105B005B0859
:103370000E903C93002C00DCC4E2002D00DCC1E286
:10338000002E00DCBEE2012A01D001F045F801293F
:1033900001D001F041F82B00634349930023479388
:1033A0004593469348935B46DB170893049BDB17D2
:1033B00009935346DB170793534630935B4632938A
:1033C000479B3A93459B3F93469B409300234193F1
:1033D000289B409A534300933A9B02933F9B984605
:1033E00000232A9301339B46C146379A4B469046A9
:1033F00036995B008A46349998448C46029B5B0060
:103400009A44009B5B00634494462693289B4B445C
:103410005B0063442C9342E0099B2000E11708F015
:10342000BDFC02000B1E00DB02E3012162484942A1
:1034300080185941CB175B005B0814930023159348
:10344000149B159CC01861414A00C00F02435846A6
:10345000D317034020990E98114018180123884271
:1034600000DB002359465B420B401A990A419A1827
:103470000D9B9C46059B62449A4200DA1A00069B0B
:103480009A4200DD1A00269B1A80022294460233DB
:1034900026932C9BE044E244434500D17BE2434623
:1034A000524600255D5F0B9B0024145F9C460C9ADE
:1034B000654494460A9B309A64449D409C40AA42CD
:1034C00000D10EE3079B2800E91708F067FC020013
:1034D0000B1E00DBBBE20127374E7F42B6185F416F
:1034E000FB175B005B08109300231193109A119B4C
:1034F000B6185F417A00F60F32435846D31703409F
:103500001898249984461140634401268B4200DBBD
:1035100000265B4676421E401E9B1A41B618329A20
:10352000A24200D1F2E2089B2000E11708F036FC2D
:1035300002000B1E00DB71E201211F484942801886
:103540005941CB175B005B08129300231393129B26
:10355000139CC01861414A00C00F02435846D3175C
:1035600003401698229984461140634401248B42FB
:1035700000DB00245B4664421C401C9B1A41A418DB
:10358000049AA419A24200D046E7099B1000190032
:1035900008F004FC02000B1E01DA00F038FF802066
:1035A0000021C00580252D06AC4200D040E70E98D2
:1035B0003C99024A52E7C046010000C0FFFFFF7F6E
:1035C0003100A4A803F0D2FD33682900AAA8029311
:1035D00003F0CCFD2B682100B0A89A4603F0C6FD8D
:1035E00004212368A49A9946FE91042A01DD01F082
:1035F000D0FA8B1A914215D00121FF91012B11D0E5
:10360000FFA804300160022B0CD0FFA80830016035
:10361000032B07D0FFA80C300160042B02D0FFA8B9
:10362000103001609B00FFA9C8189200A5A908F0FE
:1036300069FD0421FFABAA9A14331960042A01DD45
:1036400001F0A7FA8B1A914212D00121FFA818307D
:103650000160012B0CD0FFA81C300160022B07D0A9
:10366000FFA820300160032B02D0FFA824300160A6
:103670000125FFA99B001831C8189200ABA908F0DA
:1036800041FDFFAAC8321560FFABFFAA0C3390685A
:103690001B680832FFAAC43213600200FFA95A4314
:1036A0004C680431FFA9C0310A606243FFA9BC31F4
:1036B0000A60FFAA516A2432FFAAE8321560FFAA05
:1036C00020321268FF9F9346FFAAE43211605D46E4
:1036D0000A006A439046FFAA1C3216684246FFADB4
:1036E000E0352A60FFAA18321268FFAD94464246C0
:1036F0007243DC352A60674507D00022012F01D1D3
:1037000000F080FEFFAFDC373A60A64207D000220F
:10371000012C01D100F071FEFFACE0342260834542
:1037200007D00022012801D100F062FEFFA8E4309A
:1037300002608B4207D0012B01D100F053FE002321
:10374000FFAAE83213600421B09AF891042A01DD3F
:1037500001F01FFA8B1A91420DD00121F991012B32
:1037600009D0FA91022B06D0FB91032B03D0FC91D8
:10377000042B00D0FD919B00F9A9C8189200B1A9B3
:1037800008F0C0FCF99B2093002B00DCBAE0FB9A08
:10379000FA9B9046FC9A0E939346FFAABC3212689D
:1037A0002292FFAAC03212681092FFAAC432126895
:1037B0000792FFAAC8321668FFAADC321268249268
:1037C000FFAAE03212681292FFAAE432126808924D
:1037D000FFAAE8321568002B00DC93E04346002B7B
:1037E00000DC8FE05B46002B00DC8BE043460E9A4A
:1037F0005343012E01D000F05AFD012D01D000F0FD
:1038000056FD1C935B469B000A9300231893169366
:1038100014931A934B460993059B99465346059377
:10382000069B9A46189B0B93169B0693149B0C932E
:1038300000230D935B460C9A069E53439C464B46D1
:103840000025049333002E0065469C460B9F63467B
:103850009C00029BB8009946059B4C449946099BE5
:1038600048449946049BA90049449946634600226E
:1038700000930491A15883588C4663444B4500DA69
:103880004B46534500DD534604998B500A9B043246
:103890009A42EFD14B460493009B01369C46079B0E
:1038A0005D449946089BCC4499464F44B045CED1DF
:1038B00010990C9A8C46424412990C92069A049BD9
:1038C00062448C4606920B9A994662440D9B0B9279
:1038D0000E9A01330D939A42ACD11C99149A8C46DE
:1038E000229962448C4614922499169A1A9B624437
:1038F0008C461692189A013362441892209A1A93B1
:103900009A428FD10020FFF741F9379A38999446AF
:10391000E3448C461E9A289962448C461E921C9A57
:103920002A9B62441C922E9A01332A939A4201D018
:10393000FFF72EFB11008C463D9A439962448C465A
:103940003D9244993F9A419B62448C463F923E9AF5
:10395000013362443E92429A41939A4201D0FFF76A
:103960000CFB4999459A8C464B9962448C4645928A
:103970004A99479A489B62448C464792469A01333B
:10398000624446924D9A48939A4201D0FFF7EAFA70
:103990000020FFF7FBF82899009A8C4662440092B9
:1039A000389A39999446E1448C46029A2A9B62449B
:1039B00002922E9A01332A939A4200D015E5110003
:1039C0008C46409A439962448C46409244993F9A6F
:1039D000419B62448C463F923A9A013362443A9248
:1039E000429A41939A4200D0F2E44999469A8C4611
:1039F0004B9962448C4646924C99459A489B624446
:103A00008C464592479A0133624447924E9A4893B6
:103A10009A4200D0D4E40020FFF7B8F880200021BB
:103A2000C00512184B4111005B00CA0F1A4395E5FF
:103A300080200021C00512184B4111005B00CA0F05
:103A40001A4304E580200021C005FFF7C7FA802053
:103A50000021C00512184B4111005B00CA0F1A4328
:103A60004BE580200021C005FFF743FB80200021AB
:103A7000C00512184B4111005B00CA0F1A43FFF733
:103A80000CFB089B1000190008F088F902000B1EBF
:103A900001DA00F0FEFB80200021C00580273F06F0
:103AA000BD4201D0FFF71BFB129B3A99E34AFFF797
:103AB0002DFB079B1000190008F070F902000B1E87
:103AC00001DA00F0E1FB80260027F60580210906D7
:103AD000884501D0FFF7D2FA149B3C99D74AFFF7EB
:103AE000E3FA079B1000190008F058F902000B1EBA
:103AF00000DAC5E380260027F605802109068D42FD
:103B000000D0EBE4189B3E99CC4AFEE4089B1000E1
:103B1000190008F043F902000B1E00DAACE3802024
:103B20000021C00580252D06AC4200D007E5169B7C
:103B30003D99C24A1AE5BB1E012F01D1FFF735F8A6
:103B40009B00CEAAD218634452685B689A4201D0A7
:103B5000FFF710F8FB1E022F01D1FFF726F89B009C
:103B6000CEAAD218634452685B689A4201D0FFF72C
:103B700001F83A1F032F01D1FFF717F89300CEA9E0
:103B8000C918634449685B68994201D0FEF7F2FFA7
:103B9000002A01D1FFF709F8C99ACF9B9A4201D0B8
:103BA000FEF7E8FFFFF701F831006EA803F0DEFA38
:103BB000290074A8376803F0D9FA21007AA82D6883
:103BC00003F0D4FA6E9A2668002A01DC00F0DEFFCA
:103BD00001206EAB92009A1859680433484393420F
:103BE000FAD1749A002A01DC00F0CDFF012174ABF8
:103BF00092009A185C68043361439A42FAD17A9C25
:103C0000002C01DC00F0BCFF01238C467AAAA40042
:103C10001419516804324B43A242FAD161468142E1
:103C200001D000F0B6FF8B4201D000F0B2FF002BB4
:103C300000DC67E64A46524210002692012211003B
:103C400081400139884649101291414610004900CF
:103C500049082C910799FB1849428840249101009A
:103C600001398946491010914946490049082A916D
:103C700008992E9349428A40013A2091229251108C
:103C80005200520828925A46D2170892049A534674
:103C9000D21709925246D217CA461496C146012637
:103CA000B8460E915F460792009502939CE0079BF1
:103CB0002000E11708F072F802000B1E00DAE7E0BE
:103CC00080200021C00512184B41D917490049082E
:103CD0001691002117911698179912184B4111004F
:103CE0005B00CA0F1343129A48469446D9173140D5
:103CF000184061440122814200DB00222699524291
:103D00000B413240D4185F4500D1ACE05B463A002D
:103D1000D9175846089B08F041F802000B1E00DA3C
:103D2000D7E080200021C00512184B41D917490067
:103D300049081A9100211B911A981B9912184B419E
:103D400011005B00CA0F1343109A50469446D917CE
:103D50003140184061440122814200DB0022249955
:103D600052420B413240D3181C19049B1A00A34243
:103D700066D0099B2000E11708F010F802000B1E26
:103D800000DA93E080200021C00512184B41110099
:103D90005B00CA0F1A430E9B22989C46D1173140F4
:103DA000104061440123814200DB002320995B42E3
:103DB0000A4133409B180D9A9446059A63449342F6
:103DC00000DA1300069A934200DD1300149A137070
:103DD00001239C46009BE04401330093531C149341
:103DE0002E9B984500D18DE5434600241C570B9B24
:103DF0000C999C4664448C46009B0A9A1B7894401C
:103E00005BB2634493409B46029B1A00A34200D0DE
:103E10004DE7079B1000190007F0C0FF02000B1EC2
:103E200069DB80200021C00580252D06AC4200D032
:103E300049E712992C98014B5CE7C046FFFFFF7FD2
:103E4000099B1000190007F0A9FF02000B1E56DBAA
:103E500080200021C00580252D06AC4229D10E9975
:103E60002898DE4A9EE7089B3A001900380007F0C0
:103E700095FF02000B1E3ADB80200021C005802543
:103E80002D06AB4500D04FE710992A98D34B62E737
:103E90000121D348494212184B41D917490049081A
:103EA0001891002119911898199916E70121CC4809
:103EB000494212184B41D917490049081E91002167
:103EC0001F911E981F99801859414A00C00F024344
:103ED00061E70121C248494212184B41D9174900F4
:103EE00049081C9100211D911C981D9926E701216C
:103EF000BB484942C3E70121B948494294E701213F
:103F0000B7484942A7E7310092A803F02FF92900EA
:103F100098A8366803F02AF921009EA82D6803F0BE
:103F200025F9929A2768002A01DC00F026FE01217B
:103F300092AB92009A185868043341439342FAD1E5
:103F4000989A002A01DC00F015FE012098AB92003F
:103F50009A185C68043360439A42FAD19E9C002C04
:103F600001DC00F004FE01238C469EAAA400141973
:103F7000516804324B439442FAD16146814201D0E8
:103F800000F007FE8B4201D000F003FE002B00DCA6
:103F9000B8E44A46524210001A92012211008140B0
:103FA00001394810109010001C91490049082A91CD
:103FB0000799B146494288401691010001394810DD
:103FC000189149004908269108995B0049428A40A6
:103FD000013A129114925110520052081E925A4600
:103FE000D2170892049A4B44D217099252462C9346
:103FF0000123D2170095984655460E9002910792DC
:10400000AEE02A00079B2000E11707F0C7FE020080
:104010000B1E00DAFAE080200021C00512184B4187
:10402000D917490049082091002121912098219910
:1040300012184B4111005B00CA0F13434246D917B7
:104040001140109A1C989446184061440124814202
:1040500000DB00244246644214401A9A1341E418DB
:10406000D34500D1A4E053465A46D9175046089B81
:1040700007F094FE02000B1E00DAE3E0802000212E
:10408000C00512184B41D917490049082491002155
:1040900025912498259912184B4111005B00CA0FF5
:1040A00013434246D91711400E9A18989446184067
:1040B00061440122814200DB0022414652420A4013
:1040C00016990B41D3181C19049B1A00A34200D166
:1040D00088E0099B2000E11707F060FE02000B1E3C
:1040E00000DAA1E080200021C00512184B41D91749
:1040F000490049082E9100212F912E982F991218CE
:104100004B4111005B00CA0F1A434346D1171940B7
:10411000029B14989C46104061440123814200DBBD
:10412000002341465B420B4012990A419B180D9AAD
:104130009446059A6344934200DA1300069A934228
:1041400000DD13003B8002239C46009BE1440233C8
:104150000093BB1C1F002C9B4B4501D1FFF7D2FBEA
:104160004B4600241C5F0B9B0A9A9C46009B6444B0
:1041700000215B5E0C9994408C46634493409A46C0
:10418000A54200D03DE7079B2A001900280007F050
:1041900005FE02000B1E67DB80200021C005802683
:1041A0003606B44200D039E710992A980B4B4DE7F8
:1041B000089B5A461900584607F0F0FD02000B1EF6
:1041C0004EDB80200021C00580263606B24500D097
:1041D00057E70E992698014B6BE7C046FFFFFF7F1C
:1041E000010000C0099B1000190007F0D7FD020074
:1041F0000B1E3DDB80200021C00580263606B44220
:1042000000D072E702991E98A84A86E70121A848C3
:10421000494212184B41D9174900490822910021FF
:1042200023912298239903E70121A14849421218BA
:104230004B41D917490049083491002135913498F0
:1042400035995CE701219A48494212184B41D91728
:1042500049004908289100212991289829991AE7AD
:10426000012193484942AFE701219148494296E72D
:1042700001218F484942C0E701218D48494251E45C
:1042800001278B4E7F4238E40127894E7F42FFF79A
:104290001DFC012186484942FFF700FC0121FEF781
:1042A000CAFC0120FEF7B7FC0123FEF7A6FC289309
:1042B0005B469B000A9300231A931C931E9326933C
:1042C0004B46069F069353460B935B46AD000C93FB
:1042D0004346AC46059CB60009931A9B14931C9B5D
:1042E00016931E9B0D93002318930C9A0D9913009F
:1042F00093464B439B445A469500069A9046149A1F
:1043000045449246169A9146002290466246009293
:104310004A469100029A0B9894465246614484465C
:104320009800069B920062449C4643460593009B7E
:1043300060449C46049515680B68A8464344A34214
:1043400000DA2300BB4200DD3B0008C0049B891952
:1043500062449842EFD1059B0A9A984663460093BF
:1043600001239C46079BE0449C46089BE1449C46F5
:104370008518099A5B46E244904503D00C9A94460E
:10438000E344C5E7110088460D9A109942448846D7
:104390000D921299169A009B424488461692149ADE
:1043A0009C464244189B14920E9A013318939342F0
:1043B0009BD128991E9A88462299424488461E928B
:1043C00024991C9A269B424488461C921A9A0133CF
:1043D00042441A92209A26939A4200D07DE7002008
:1043E000FEF7D4FB0023FFAAC8321360FFF7ABF936
:1043F000FFA8C4300260FFF79CF9FFACC034226014
:10440000FFF78DF9FFAFBC373A60FFF77EF9012166
:1044100027484942FFF7C6F82E9B429843434F93E3
:10442000289B5B0040934B0014935300129300238E
:10443000489349934A934D935B46DB170893049B3B
:10444000DB1709935346DB170793489BD0464593E8
:10445000499BDA4646934A9B419300234793289A07
:104460004199130094464B4334999C4462468C46D0
:104470003F92520062441092459AC1462692469A53
:104480002A9200222C920132934637992A9A8C461E
:104490003699520062448C460092269A5D00349B05
:1044A000520062449C46029265444BE0FFFFFF7F4E
:1044B000010000C0099B2000E11707F06FFC02001B
:1044C0000B1E00DB12E10121E348494280185941EB
:1044D000CB175B005B083A9300233B933A9B3B9CD2
:1044E000C01861414A00C00F02435946D3170B4020
:1044F0000E9920988C46104063440121984200DCBC
:1045000000214B4259460B401A990A419B180D9ABB
:104510009446059A6344934200DA1300069A934244
:1045200000DD1300149A2B809446009B129A63447A
:1045300094460093029B023563440293109B9D4274
:1045400000D1B6E0009B00229B5E0B9A94460A9A2B
:10455000634493409846029B00241C5F0C9B9C463E
:1045600064449440C14500D18EE043464A46D91781
:104570004046079B07F012FC02000B1E00DBC9E05F
:104580000127B54E7F42B6185F41FB175B005B0801
:10459000309300233193309A319BB6185F417A00F3
:1045A000F60F32435B46D1171940189B24989C465E
:1045B000104061440123814200DB002359465B42E5
:1045C0000B401E9998460A419044A24547D0524656
:1045D000089B2000E11707F0E1FB02000B1E00DB47
:1045E0008EE001279C4E7F42B6185F41FB175B00AF
:1045F0005B08329300233393329B339CF618674158
:104600007A00F60F32435B46D1171940169B229869
:104610009C46104061440124814200DB00245B463B
:1046200064421C401C9B1A41A418049A4444A242B0
:1046300000D03FE7099B1000190007F0AFFB020014
:104640000B1E00DAA1E080200021C005802636067E
:10465000B44200D03AE70E9B3C98804A4DE7089B55
:1046600052461900504607F099FB02000B1E00DA73
:1046700099E080260027F605802109068C42B3D1F7
:1046800016993D98754AC6E7079B4A461900484661
:1046900007F084FB02000B1E7BDB80260027F6055B
:1046A00080210906884500D06DE718993E986B4A2D
:1046B00080E74098290084463898614484461091E8
:1046C00039982A992C9A614484462A9126993F9CCC
:1046D000614426912E99013223002C928A4223D0E4
:1046E000289922008C4662443F92CEE68020002129
:1046F000C00512184B4111005B00CA0F1A43F4E6C3
:1047000080200021C00512184B4111005B00CA0F28
:104710001A4378E780200021C00512184B41110090
:104720005B00CA0F1A433DE78C46419A43996244A5
:104730008C4641924499469A479B62448C464692E5
:10474000459A013362444592429AC8464793934240
:1047500000D084E64F994A9A8C464B9962448C4625
:104760004A924C99499A4D9B62448C464992489A88
:104770000133624448924E9AD3464D93C2469342C7
:1047800000D062E60020FEF701FA012132484942DA
:104790005CE70127304E7F4282E70023FFAA883280
:1047A0001360FEF779FD01272B4E7F4264E7FFA9D6
:1047B00084310A60FEF766FDFFA880300260FEF7D4
:1047C00057FD7C342260FEF749FD01212248494211
:1047D000FEF7B7FC429A2E9B53434F930023479317
:1047E000499348934C935B46DB170893049B289AA4
:1047F000DB17099353469446DB170793349B6344B6
:104800004E93479BD0464593499BDA464193489B3C
:104810003F93002346933F9A289BC14653439C46AF
:104820003093459B4E9A3293419B62443D930023C3
:104830003E9301339B460E923D9A409B9446329A9A
:10484000634494460293369B349D63440093309BAB
:104850009C4665444CE0C046010000C0FFFFFF7F5E
:10486000099B2000E11707F099FA02000B1E00DBFC
:104870003FE10121C848494280185941CB175B00EC
:104880005B082C9300232D932C9B2D9CC018614119
:104890004A00C00F02435946D3170B401099209885
:1048A0008C46104063440121984200DC00214B42B9
:1048B00059460B4016990A419B180D9A9446059A41
:1048C0006344934200DA1300069A934200DD13001A
:1048D0001C9A2B709446029B1E9A63449446029342
:1048E000009B0135634400930E9B9D4200D1B5E0CF
:1048F0000B9A029B94461B780A9A5BB263449340DE
:1049000000249846009B1C570C9B9C466444944092
:10491000C14579D043464A46D9174046079B07F020
:104920003DFA02000B1E00DBEDE001279A4E7F42AC
:10493000B6185F41FB175B005B08269300232793A3
:10494000269A279BB6185F417A00F60F32435B46E2
:10495000D1171940149B24989C46104061440123B0
:10496000884200DC002359465B420B401A99984666
:104970000A419044A2455DD05246089B2000E117B1
:1049800007F00CFA02000B1E00DBC6E00127824E86
:104990007F42B6185F41FB175B005B082A93002338
:1049A0002B932A9B2B9CF61867417A00F60F324313
:1049B0005B46D1171940129B22989C4610406144D7
:1049C0000124884200DC00245B4664421C40189BA2
:1049D0001A41A418049A4444A24200D040E7099B1B
:1049E0001000190007F0DAF902000B1E00DAB6E039
:1049F00080200021C00580263606B44200D03BE767
:104A0000109B3998654A4EE7079B4A46190048466D
:104A100007F0C4F902000B1E00DA88E080260027A8
:104A2000F60580210906884500D081E714993C9855
:104A30005A4A94E7089B52461900504607F0AEF9CF
:104A400002000B1E77DB80260027F6058021090671
:104A50008C429ED112993A98504AB1E7289A3798D9
:104A60009446654484463D993898614484463D9116
:104A700032993E9B61449446329130992E9A01338B
:104A800061443E930E9530919A4200D0D4E61100D5
:104A90008C463F9A439962448C463F924499419A8E
:104AA000469B62448C464192459A0133624445924A
:104AB000429AC8464693934200D0ACE64F99489A32
:104AC0008C464A9962448C4648924B99499A4C9B31
:104AD00062448C464992479A0133624447924D9A08
:104AE000D3464C93C246934200D08AE60020FEF79C
:104AF0004DF880200021C00512184B4111005B00C9
:104B0000CA0F1A43C7E680200021C00512184B4186
:104B100011005B00CA0F1A4319E780200021C0056D
:104B200012184B4111005B00CA0F1A4340E70127DE
:104B3000194E7F4275E70127174E7F4286E7FFA98E
:104B400044310A60FEF76AF9FFA840300260FEF7C0
:104B50005BF90023FFAA48321360FEF769F90121CF
:104B60000D48494247E73C342260FEF743F90123F0
:104B7000FFF704FA0120FFF7F1F90121FFF7E0F94F
:104B80000123FFF74CF80121FFF739F80120FFF767
:104B900028F80CF00DFCC046010000C0FFFFFF7FAD
:104BA000F0B5CE4647464B6980B598460B6985B04F
:104BB00099461C4B05001A680C0002F0BBFA1A4B10
:104BC00021001A680600280002F0B4FA174B07000B
:104BD0001A682100280002F0C1FA027A0300012AB3
:104BE00014D0FD20D11F014202D0FC38022A08D186
:104BF000029342464B462100280001970096FDF79C
:104C000035FF05B0C0BCB946B046F0BD02904B467A
:104C100028004246210001970096FDF7BFFC0020C6
:104C2000EFE7C046D42E0110D82E0110DC2E011063
:104C3000002310B5040082B00093044A044B0549D8
:104C400002F06CFA200002B010BDC046F94D001011
:104C5000A14B001091250010F0B54E46DE46574698
:104C60004546E0B51E0089B0129B06909946139BFD
:104C700003911000310098461700FDF77FFC0123D7
:104C80005840434618704B461B78092B00D177E0FB
:104C9000072B0AD00020012B00D180E009B0F0BC26
:104CA000BB46B246A946A046F0BD42463B69002439
:104CB0005B42936233694A4D5B42D3624A46434644
:104CC00012691A630F2342465362FB689B46F368DE
:104CD0005846191C9A4607F0CFF85346002800D1D1
:104CE0005B46181C07F042F902000B0006F04AFB75
:104CF00006000F00504607F039F932003B0006F07D
:104D00004AFB4B4604900591D86807F02FF9220022
:104D10002B0006F05EFB02000B003000390006F0AD
:104D20003AFB142243464244924604000433584658
:104D30000D00079307F01AF932003B0006F02BFB39
:104D40005246079BFDF722F80498059943464246D0
:104D500008331832FDF71AF843464246200029006E
:104D600020331C32FDF712F8039A4346117842466D
:104D70001032009206984A460C33FDF78BF98DE706
:104D800042463B6900245B4293623369154D5B42A6
:104D9000D3624A46434612691A63142393E7039B7E
:104DA0001B78012B09D0032B14D0022B0BD04246C9
:104DB0000D4B53630D4B936370E7002342465363DF
:104DC0000A4B93636AE74246094B5363FE239B05F4
:104DD000936363E7002342465363064B93635DE7A7
:104DE0000000E04000003041FFFF7FFFFFFF7F7FBA
:104DF000000080BF0000C040F0B5CE46474680B5F9
:104E0000846806002368002220009B6983B00D009F
:104E10009847071E3BD023680122290020009B6988
:104E200098478046002837D02368002229002000B8
:104E3000DB699847814600281FD02B6969693A00D1
:104E40000193009043463000FFF706FF051E0ED188
:104E50002368390020005B6A984723684146200098
:104E60005B6A98472368494620005B6A9847280098
:104E700003B0C0BCB946B046F0BD0A4B34690093DC
:104E80005C233000084A0949A0470125EFE7084B99
:104E9000346900935623F4E7064B34690093592391
:104EA000EFE7C046C02E01101C2E0110082C011087
:104EB000982E0110AC2E011010B53821436B984785
:104EC00010BDC046F0B5DE4645464E465746E0B5F5
:104ED000C34BE9B01A680C00060002F02BF9C14B75
:104EE00080461A682100300002F024F9236805008A
:104EF0009B46002B04D000221B689346032B4DD009
:104F0000B94B21001A68300002F028F94346027AB2
:104F10001B7A0700934213D00293B44B0392019380
:104F2000B34B300000933469B24BB34AB349A04746
:104F3000012069B0F0BCBB46B246A946A046F0BD10
:104F40006269246991462A7A93422FD0072B1DD09B
:104F5000092B1DD1122A1BD1336C3000616B98478D
:104F60005AAE2B681890290030009A4602F0FEF8DD
:104F70005A9B002B00DC47E1320001219B00F31813
:104F80005068043241439342FAD13EE1092A15D0D8
:104F9000300033699A4998470120CAE7994B2100AC
:104FA00030001A6802F0C6F88346A9E7072B05D03F
:104FB000092B01D100F0FAFD0120BAE75B461B7A0C
:104FC000022B00D1EAE3042BF6D15AAE2200494667
:104FD000300000F0F5FF636A41463393A36A42ACA8
:104FE0002000349302F0C2F843461B682900109356
:104FF00048AB1800984602F0B9F82B6859464EA8FD
:10500000369302F0B3F85B4654AD1B6839002800B4
:10501000269302F0ABF83B6835930A22B35E2893DF
:105020000C22B35E29930E22B35E16931022B35E58
:1050300017930222B35E626899460423F75E649B6D
:1050400020923793659B38936B689A4200DD2093DA
:1050500042462B69526826692A9319929A4200DDCA
:105060001993A36830001893E3682B9343469B6819
:1050700015934346DB68119343461B6919009B4611
:1050800005F014FF0100199805F010FFAB68399086
:105090002E93EB682C93209B002B00DC56E22E9A7B
:1050A000002A00DC52E22C99002900DC4EE2199B18
:1050B000002B00DC4AE20B002A98534302005A43BB
:1050C0003B922B9A189C1300634373433A9313004B
:1050D0004C467B435B421B1B73432193130073437A
:1050E000299A41435A433C92289A3D91724311991F
:1050F0003E920A0015984243584650435A4651433F
:10510000179A3F905A43169B1C9173431F93002399
:10511000229331937B42419363421A924093419B85
:105120000D93219B2393229B249300233093409B38
:105130005F461493239B0E93249B259300232F9368
:10514000359A259B94465B0063443293269B9B468D
:10515000369B5E460F9300231E9339991E9805F0E7
:10516000A5FE159A0300002A00DC0BE3109A7B438E
:1051700094465B00634408930E9B002498460F9B63
:105180000025994600230D989B4682460494059578
:10519000119B002B00DC3DE2002240464B46149D53
:1051A0000C9218E02B9AAA4217DD5246002A14DB13
:1051B0001899FA18514500DD08E2169B0C999C4697
:1051C00013001F9A65449446119A01310C91604472
:1051D0008A4200D11EE2002DE4DAFA18EDE7C0465B
:1051E000703101107831011074310110542F011009
:1051F000642F01102C080000E02E0110902C0110EB
:10520000702F01106C31011001215046189AFCF7E3
:1052100061FD22004946300000F0D2FE636A41463B
:105220002893A36A42AC2000299301F09FFF4346D4
:105230001B682900149348AB1800984601F096FFAC
:1052400059464EA801F092FF5B46002B01D01B6827
:105250009B4654AD3900280001F088FF3B682A9333
:10526000736921930A22B35E2B930C22B35E2E93B3
:105270000E22B35E0C931022B35E0D930222B35E36
:10528000626899460423F75EF36920922C93B36A0F
:105290002F93F36A30936B689A4200DD2093424665
:1052A0002B6952681A929A4200DD1A93A36820690A
:1052B0001C93E368319343469B681E934346DB6827
:1052C000199343461B6919009A4605F0EFFD01004A
:1052D0001A9805F0EBFDAB6832902493EB682593A8
:1052E000209B002B00DC31E1249B002B00DC2DE116
:1052F000259B002B00DC29E11A9B002B00DC25E11B
:1053000000230F937B4234934B465746DA465B4269
:105310003393349B9B4600232393339BD1460993BD
:105320000023BA4622930023D846D346CA46129396
:105330001F931F9E3299300005F0B8FD1E9B002B75
:1053400000DC41E15B46459A58431100469B0D9CA9
:1053500059434C43449910940F9C4B9F61434144E3
:105360004A43099900248C4662445A4315004C9ADA
:105370000C99944657434A9A59437243149E11918B
:10538000B14648440B90604641460023BC467A43F0
:105390000890199800284CDD0998049363460A90F8
:1053A00000201793089B5E46994693462F0006906F
:1053B0000FE00C9B06989C460130119B06900A98C2
:1053C000CB4460449C460A90199B069867448342EC
:1053D00029D00A980028ECDB319B8342E9DD0029C3
:1053E000E7DB1C988842E4DD002EE2DD18980023FC
:1053F000584416900B9808928446BC446046159019
:1054000004980E912199159A8C461699D256C95630
:1054100062444A439446013360449E42F2D1089A62
:105420000E990490C5E71798B34684464846049BF6
:1054300008900D98013481461098494481461E9881
:105440004D446244A042A4D15246002A04D012998D
:105450005258944604926344129A2899885829997C
:105460008F58FA43D2173A40002F71DD9340002540
:10547000002400271E00984273D03200DB17C117AA
:1054800006F08CFC02000B1E00DA80E08020002178
:10549000C00512184B4111005B00CA0F1A430121CD
:1054A000D3170B401440ED180F9B56992A98594377
:1054B000239B9C46579B61445943229B9C46589B87
:1054C000614459431F9B9C4601236044AC4200DC6D
:1054D000002301243A415B4223409B182C9A9446B6
:1054E0002F9A6344934200DA1300309A934200DD0E
:1054F0001300129A435404321F9B12921A9A0133DA
:105500001F939A4200D014E72B99099A8C46229B4C
:1055100062440992259A0133D1462293DA46C34662
:105520009A4200D0FFE62E9A239B9446249A013398
:1055300057462393CA46E3449A4200D0EDE60F9BB8
:10554000209A01330F939A4200D0E2E60020F0E463
:1055500001247F42BC409340013C1E0065109842EC
:105560008BD1D9171A0030000B0006F017FC02008F
:105570000B1E23DB80200021C005049005918021B3
:1055800009068E4208D16400804A64088CE7012134
:105590007F48494204900591049805998018594123
:1055A000CB175B005B08269300232793269A279B43
:1055B000801859414A00C00F024370E70121744826
:1055C000494204900591DAE700233DE7002F00DC13
:1055D000F3E5089C4100A44661440A900B950991AB
:1055E000002409991C570020095E01334C43E11740
:1055F00012941391049C059D1298139924184D41FF
:10560000099904940595023109919A42E8D10A98C2
:105610000B9DD2E501239C46179BE3449C461C9BB3
:10562000E2449C461A9BE1449C46159BE0445B4542
:1056300000D0ADE5049C059D269B002B03D032686D
:105640007368A4185D411E9B34999A00339B9B5844
:105650008A5890464F4A934200DD81E08022120230
:10566000944663441A14DB1740460E21091A8C46EF
:1056700020216046494241187DD40120884007908E
:1056800060460121814020000691290006F086FB3A
:10569000069A079B12184B41049205930F2342462A
:1056A0009C1A2F3BE1185ED4059A0A41379B9A4217
:1056B00000DA1A00389B9A4200DD1A0032991E9BCC
:1056C0000A808A1C3F9932928C460F9A01336244B9
:1056D0000F92199A1E9308369A4200D03DE52A99F6
:1056E000259A8C463E9962448C46259228990E9ABA
:1056F0002F9B62448C460E92149A0133624414929A
:105700002C9A2F939A4200D01AE529990D9A8C462B
:105710003D9962448C460D923C99249A309B624498
:105720008C462492239A0133624423922E9ABB46DC
:1057300030939A4200D0FAE43B99229A8C463A99E7
:1057400062448C462292219A319B62442192209A93
:1057500001333193934200D0E1E40020FFF7E9FBED
:1057600000230D4A80E72023049A191B059BE24081
:105770008B401A439AE72021091A00200130C840C3
:1057800007907DE70024002556E7C046FFFFFF7F16
:10579000010000C0FFFFFE7FFF7F00005AAE220025
:1057A0004946300000F00CFC636A41462F93A36A1F
:1057B00042AC2000309301F0D9FC43461B6829001D
:1057C0000D9348AB1800984601F0D0FC2B68594661
:1057D0004EA8319301F0CAFC5B4654AD1B683900FA
:1057E0002800329301F0C2FC3B6833930A22B35E77
:1057F00022930C22B35E23930E22B35E11931022E8
:10580000B35E12930222B35E99460422B35E6268CD
:105810009A46649B1E923493659B35936B689A42BB
:1058200000DD1E9342462B69526826692493159227
:105830009A4200DD1593A36830001493E368259322
:1058400043469B6810934346DB680E9343461F69AB
:10585000390005F02BFB0100159805F027FBAB681C
:1058600036902693EB6828931E9B002B00DC6DE698
:10587000269A002A00DC69E62899002900DC65E602
:10588000159B002B00DC61E60B00249853430200BB
:105890005A433892259A149C130063437343544629
:1058A0003793130063434C465B421B1B73431A93AD
:1058B00013007343239A41435A433992229A3A91EF
:1058C00072430E993B920A001098794342437A43FF
:1058D0003C92129A17915A43119B16927343189354
:1058E00000231C932B9353465B423E9363423D93AC
:1058F0003E9B0A931A9B1F931C9B209300232A9381
:105900003D9BBB460F931F9B0B93209B2193002332
:105910002993339A219B94465B0063442E93319BD9
:105920005C460C9300239B4619933699199805F011
:10593000BDFA109A0300002A00DC35E10D9A63439A
:10594000944600220A9D5B00634404939146002321
:10595000AC460B9F0C9E0E9A002A3EDD0F993D002F
:105960008A4600213200099116E02599514516DD3D
:105970006146002913DB1498A118604511DC119AC7
:10598000099890460A001899C24488460E99013039
:1059900009904544814220D051460029E5DAA118FA
:1059A000EDE7002CEBDD049808948046680064461F
:1059B00040448046069440460024005F04000020D6
:1059C0001056013260431B1802208446E044914285
:1059D000F1D1069A089C9446D1E701229046129A8A
:1059E000C1449046179AC4449046169A464490463D
:1059F000109A47444A45AED13299002904D05A46FC
:105A00008A5894460492634459462F9A5058309AC3
:105A10005258D143C9171140002A00DC86E0002209
:105A20008B400026002590461F00984200D188E058
:105A30003A00DB17C11706F0B1F902000B1E00DABD
:105A400095E080200021C00512184B4111005B0039
:105A5000CA0F1A430121D3170B401540F618012332
:105A6000B54200DC002301215B420B4041460A4164
:105A70009B18349A934200DA1300359A934200DD62
:105A800013002E9A3C99138002322E9204229446DF
:105A9000E3448C460C9A199B62440C92159A01338C
:105AA0001993934200D040E72499219A8C463B9960
:105AB00062448C46219222990B9A299B62448C461F
:105AC0000B920F9A013362440F92289AA3462993AE
:105AD0009A4200D01DE723990A9A8C463A9962446B
